{"abi":[{"type":"function","name":"split","inputs":[{"name":"_input","type":"bytes","internalType":"bytes"}],"outputs":[{"name":"","type":"bytes32[]","internalType":"bytes32[]"}],"stateMutability":"pure"}],"bytecode":{"object":"0x608060405234801561001057600080fd5b50610221806100206000396000f3fe608060405234801561001057600080fd5b506004361061002b5760003560e01c806365d894e914610030575b600080fd5b61004361003e3660046100f6565b610059565b60405161005091906101a7565b60405180910390f35b8051606090829060008167ffffffffffffffff81111561007b5761007b6100e0565b6040519080825280602002602001820160405280156100a4578160200160208202803683370190505b5090506020830160208201845182015b808310156100d457825160f81c82526001830192506020820191506100b4565b50919695505050505050565b634e487b7160e01b600052604160045260246000fd5b60006020828403121561010857600080fd5b813567ffffffffffffffff8082111561012057600080fd5b818401915084601f83011261013457600080fd5b813581811115610146576101466100e0565b604051601f8201601f19908116603f0116810190838211818310171561016e5761016e6100e0565b8160405282815287602084870101111561018757600080fd5b826020860160208301376000928101602001929092525095945050505050565b6020808252825182820181905260009190848201906040850190845b818110156101df578351835292840192918401916001016101c3565b5090969550505050505056fea2646970667358221220b7e2ab6df8b65b95e870ce4baa4a20157dd8cfe03755d36cd25d2b8387c4b1a564736f6c63430008100033","linkReferences":{}},"methodIdentifiers":{"split(bytes)":"65d894e9"},"id":3}