{"abi":[{"type":"constructor","inputs":[{"name":"_openingRules","type":"bytes32","internalType":"bytes32"},{"name":"_closingRules","type":"bytes32","internalType":"bytes32"},{"name":"_verifier","type":"address","internalType":"address"},{"name":"_expiration","type":"uint256","internalType":"uint256"}],"stateMutability":"nonpayable"},{"type":"function","name":"assertClosingPacket","inputs":[{"name":"_packetCID","type":"bytes","internalType":"bytes"},{"name":"_index","type":"bytes32","internalType":"bytes32"},{"name":"proof","type":"bytes","internalType":"bytes"},{"name":"inputs","type":"tuple","internalType":"struct IiBuyer.PacketInputs","components":[{"name":"packetCID","type":"bytes32","internalType":"bytes32"},{"name":"escrowDetails","type":"bytes32","internalType":"bytes32"},{"name":"supportingDocuments","type":"bytes[]","internalType":"bytes[]"},{"name":"escrowAddress","type":"address","internalType":"address"},{"name":"agentId","type":"uint16","internalType":"uint16"},{"name":"authorizedFunding","type":"uint256","internalType":"uint256"},{"name":"requestedFunding","type":"uint256","internalType":"uint256"},{"name":"expiration","type":"uint256","internalType":"uint256"}]}],"outputs":[{"name":"","type":"tuple","internalType":"struct IiBuyer.Deal","components":[{"name":"originator","type":"address","internalType":"address"},{"name":"openingId","type":"bytes32","internalType":"bytes32"},{"name":"closingId","type":"bytes32","internalType":"bytes32"},{"name":"openingCID","type":"bytes","internalType":"bytes"},{"name":"closingCID","type":"bytes","internalType":"bytes"},{"name":"escrowDetails","type":"bytes32","internalType":"bytes32"},{"name":"openingDocuments","type":"bytes[]","internalType":"bytes[]"},{"name":"closingDocuments","type":"bytes[]","internalType":"bytes[]"},{"name":"escrowAddress","type":"address","internalType":"address"},{"name":"agentId","type":"uint16","internalType":"uint16"},{"name":"expiration","type":"uint256","internalType":"uint256"},{"name":"authorizedFunding","type":"uint256","internalType":"uint256"},{"name":"requestedFunding","type":"uint256","internalType":"uint256"},{"name":"settledOpen","type":"bool","internalType":"bool"},{"name":"settledClose","type":"bool","internalType":"bool"}]}],"stateMutability":"nonpayable"},{"type":"function","name":"assertOpeningPacket","inputs":[{"name":"_packetCID","type":"bytes","internalType":"bytes"},{"name":"proof","type":"bytes","internalType":"bytes"},{"name":"inputs","type":"tuple","internalType":"struct IiBuyer.PacketInputs","components":[{"name":"packetCID","type":"bytes32","internalType":"bytes32"},{"name":"escrowDetails","type":"bytes32","internalType":"bytes32"},{"name":"supportingDocuments","type":"bytes[]","internalType":"bytes[]"},{"name":"escrowAddress","type":"address","internalType":"address"},{"name":"agentId","type":"uint16","internalType":"uint16"},{"name":"authorizedFunding","type":"uint256","internalType":"uint256"},{"name":"requestedFunding","type":"uint256","internalType":"uint256"},{"name":"expiration","type":"uint256","internalType":"uint256"}]}],"outputs":[],"stateMutability":"nonpayable"},{"type":"function","name":"assertionStatement","inputs":[],"outputs":[{"name":"","type":"bytes32","internalType":"bytes32"}],"stateMutability":"view"},{"type":"function","name":"cancelDeal","inputs":[{"name":"_index","type":"bytes32","internalType":"bytes32"}],"outputs":[{"name":"","type":"bool","internalType":"bool"}],"stateMutability":"nonpayable"},{"type":"function","name":"closingPacketRules","inputs":[],"outputs":[{"name":"","type":"bytes32","internalType":"bytes32"}],"stateMutability":"view"},{"type":"function","name":"deals","inputs":[{"name":"","type":"bytes32","internalType":"bytes32"}],"outputs":[{"name":"originator","type":"address","internalType":"address"},{"name":"openingId","type":"bytes32","internalType":"bytes32"},{"name":"closingId","type":"bytes32","internalType":"bytes32"},{"name":"openingCID","type":"bytes","internalType":"bytes"},{"name":"closingCID","type":"bytes","internalType":"bytes"},{"name":"escrowDetails","type":"bytes32","internalType":"bytes32"},{"name":"escrowAddress","type":"address","internalType":"address"},{"name":"agentId","type":"uint16","internalType":"uint16"},{"name":"expiration","type":"uint256","internalType":"uint256"},{"name":"authorizedFunding","type":"uint256","internalType":"uint256"},{"name":"requestedFunding","type":"uint256","internalType":"uint256"},{"name":"settledOpen","type":"bool","internalType":"bool"},{"name":"settledClose","type":"bool","internalType":"bool"}],"stateMutability":"view"},{"type":"function","name":"getAssertionResult","inputs":[{"name":"_assertionId","type":"bytes32","internalType":"bytes32"}],"outputs":[{"name":"","type":"bool","internalType":"bool"}],"stateMutability":"view"},{"type":"function","name":"maxExpiration","inputs":[],"outputs":[{"name":"","type":"uint256","internalType":"uint256"}],"stateMutability":"view"},{"type":"function","name":"openingPacketRules","inputs":[],"outputs":[{"name":"","type":"bytes32","internalType":"bytes32"}],"stateMutability":"view"},{"type":"function","name":"releaseFunding","inputs":[{"name":"_index","type":"bytes32","internalType":"bytes32"}],"outputs":[{"name":"","type":"bool","internalType":"bool"},{"name":"","type":"uint256","internalType":"uint256"}],"stateMutability":"nonpayable"},{"type":"function","name":"returnDataFormat","inputs":[{"name":"inputs","type":"tuple","internalType":"struct IiBuyer.Deal","components":[{"name":"originator","type":"address","internalType":"address"},{"name":"openingId","type":"bytes32","internalType":"bytes32"},{"name":"closingId","type":"bytes32","internalType":"bytes32"},{"name":"openingCID","type":"bytes","internalType":"bytes"},{"name":"closingCID","type":"bytes","internalType":"bytes"},{"name":"escrowDetails","type":"bytes32","internalType":"bytes32"},{"name":"openingDocuments","type":"bytes[]","internalType":"bytes[]"},{"name":"closingDocuments","type":"bytes[]","internalType":"bytes[]"},{"name":"escrowAddress","type":"address","internalType":"address"},{"name":"agentId","type":"uint16","internalType":"uint16"},{"name":"expiration","type":"uint256","internalType":"uint256"},{"name":"authorizedFunding","type":"uint256","internalType":"uint256"},{"name":"requestedFunding","type":"uint256","internalType":"uint256"},{"name":"settledOpen","type":"bool","internalType":"bool"},{"name":"settledClose","type":"bool","internalType":"bool"}]}],"outputs":[{"name":"","type":"tuple","internalType":"struct IiBuyer.Deal","components":[{"name":"originator","type":"address","internalType":"address"},{"name":"openingId","type":"bytes32","internalType":"bytes32"},{"name":"closingId","type":"bytes32","internalType":"bytes32"},{"name":"openingCID","type":"bytes","internalType":"bytes"},{"name":"closingCID","type":"bytes","internalType":"bytes"},{"name":"escrowDetails","type":"bytes32","internalType":"bytes32"},{"name":"openingDocuments","type":"bytes[]","internalType":"bytes[]"},{"name":"closingDocuments","type":"bytes[]","internalType":"bytes[]"},{"name":"escrowAddress","type":"address","internalType":"address"},{"name":"agentId","type":"uint16","internalType":"uint16"},{"name":"expiration","type":"uint256","internalType":"uint256"},{"name":"authorizedFunding","type":"uint256","internalType":"uint256"},{"name":"requestedFunding","type":"uint256","internalType":"uint256"},{"name":"settledOpen","type":"bool","internalType":"bool"},{"name":"settledClose","type":"bool","internalType":"bool"}]},{"name":"hash","type":"bytes32","internalType":"bytes32"},{"name":"encoding","type":"bytes","internalType":"bytes"}],"stateMutability":"pure"},{"type":"function","name":"settleAndReleaseFunding","inputs":[{"name":"_index","type":"bytes32","internalType":"bytes32"}],"outputs":[],"stateMutability":"nonpayable"},{"type":"function","name":"split","inputs":[{"name":"_input","type":"bytes","internalType":"bytes"}],"outputs":[{"name":"","type":"bytes32[]","internalType":"bytes32[]"}],"stateMutability":"pure"},{"type":"function","name":"verifier","inputs":[],"outputs":[{"name":"","type":"address","internalType":"contract UltraVerifier"}],"stateMutability":"view"}],"bytecode":{"object":"0x6101206040527f4d617463686573207468652072756c657320617420697066733a00000000000060c052600180546001600160a01b031916739923d42ef695b5dd9911d05ac944d4caca3c4eab1790553480156200005c57600080fd5b5060405162002b2138038062002b218339810160408190526200007f91620000a1565b60809390935260a0919091526001600160a01b03166101005260e052620000ef565b60008060008060808587031215620000b857600080fd5b84516020860151604087015191955093506001600160a01b0381168114620000df57600080fd5b6060959095015193969295505050565b60805160a05160c05160e051610100516129b66200016b6000396000818161015501528181610376015261096601526000818160f4015281816102f801526107af01526000818161029b015281816104730152610a5201526000818161012e015281816104940152610a730152600061025201526129b66000f3fe608060405234801561001057600080fd5b50600436106100ea5760003560e01c806379459eec1161008c578063ae1a5e5611610066578063ae1a5e5614610274578063d2d716e714610296578063e39dfd7f146102bd578063faa86b4a146102e057600080fd5b806379459eec1461020e57806381cd872a14610221578063a4fd99d71461024d57600080fd5b806343b1deef116100c857806343b1deef1461018f57806347c87d70146101a457806365d894e9146101c457806378488a2e146101e457600080fd5b806325bee3e9146100ef578063293697b7146101295780632b7ac3f314610150575b600080fd5b6101167f000000000000000000000000000000000000000000000000000000000000000081565b6040519081526020015b60405180910390f35b6101167f000000000000000000000000000000000000000000000000000000000000000081565b6101777f000000000000000000000000000000000000000000000000000000000000000081565b6040516001600160a01b039091168152602001610120565b6101a261019d366004611a16565b6102f3565b005b6101b76101b2366004611b82565b6107a2565b6040516101209190611e52565b6101d76101d2366004611e65565b610ef2565b6040516101209190611ed4565b6101f76101f2366004611ee7565b610f78565b604080519215158352602083019190915201610120565b6101a261021c366004611ee7565b61114e565b61023461022f366004611ee7565b611301565b6040516101209d9c9b9a99989796959493929190611f00565b6101167f000000000000000000000000000000000000000000000000000000000000000081565b610287610282366004611fa1565b611496565b60405161012093929190611fdc565b6101167f000000000000000000000000000000000000000000000000000000000000000081565b6102d06102cb366004611ee7565b611506565b6040519015158152602001610120565b6102d06102ee366004611ee7565b61157a565b61031d7f000000000000000000000000000000000000000000000000000000000000000042612011565b8160e0013510156103495760405162461bcd60e51b815260040161034090612032565b60405180910390fd5b60008160405160200161035c919061217b565b6040516020818303038152906040528051906020012090507f00000000000000000000000000000000000000000000000000000000000000006001600160a01b031663ea50d0e485856103cf89866040516020016103bb929190612211565b604051602081830303815290604052610ef2565b6040518463ffffffff1660e01b81526004016103ed93929190612233565b602060405180830381865afa15801561040a573d6000803e3d6000fd5b505050506040513d601f19601f8201168201806040525081019061042e9190612267565b61046e5760405162461bcd60e51b8152602060048201526011602482015270283937b7b31034b99034b73b30b634b21760791b6044820152606401610340565b6000857f00000000000000000000000000000000000000000000000000000000000000007f00000000000000000000000000000000000000000000000000000000000000006040516020016104c593929190612284565b60408051601f1981840301815290829052600154630dac4ebd60e21b83529092506000916001600160a01b03909116906336b13af49061050b90859030906004016122ab565b6020604051808303816000875af115801561052a573d6000803e3d6000fd5b505050506040513d601f19601f8201168201806040525081019061054e91906122d5565b604080516101e0810182523381526020810183905260008183015260608082018b90528251602480825291810190935292935091608083019190602082018180368337019050508152602001856020013581526020018580604001906105b491906122ee565b6105bd91612337565b815260200160006040519080825280602002602001820160405280156105f757816020015b60608152602001906001900390816105e25790505b50815260200161060d6080870160608801612344565b6001600160a01b0316815260200161062b60a087016080880161235f565b61ffff16815260e08601356020808301919091526000604080840182905260c08901356060808601919091526080850183905260a090940182905285825281835290819020845181546001600160a01b0319166001600160a01b0390911617815591840151600183015583015160028201559082015160038201906106b09082612403565b50608082015160048201906106c59082612403565b5060a0820151600582015560c082015180516106eb91600684019160209091019061178d565b5060e0820151805161070791600784019160209091019061178d565b506101008281015160088301805461012086015161ffff16600160a01b026001600160b01b03199091166001600160a01b03909316929092179190911790556101408301516009830155610160830151600a830155610180830151600b8301556101a0830151600c90920180546101c090940151151590910261ff00199215159290921661ffff199093169290921717905550505050505050565b6107aa6117e3565b6107d47f000000000000000000000000000000000000000000000000000000000000000042612011565b8260e0015110156107f75760405162461bcd60e51b815260040161034090612032565b600085815260208190526040902060018101546108265760405162461bcd60e51b8152600401610340906124c2565b80546001600160a01b031633146108795760405162461bcd60e51b815260206004820152601760248201527621b0b63632b91034b9903ab730baba3437b934bd32b21760491b6044820152606401610340565b600c81015460ff166108dd5760405162461bcd60e51b815260206004820152602760248201527f4f70656e696e67207061636b657420686173206e6f74206265656e20736574746044820152661b1959081e595d60ca1b6064820152608401610340565b600a810154156109395760405162461bcd60e51b815260206004820152602160248201527f52656d61696e696e672066756e64696e67206d75737420626520636c61696d656044820152601960fa1b6064820152608401610340565b60008360405160200161094c91906124f0565b6040516020818303038152906040528051906020012090507f00000000000000000000000000000000000000000000000000000000000000006001600160a01b031663ea50d0e487876109ad8d8d876040516020016103bb9392919061256d565b6040518463ffffffff1660e01b81526004016109cb93929190612233565b602060405180830381865afa1580156109e8573d6000803e3d6000fd5b505050506040513d601f19601f82011682018060405250810190610a0c9190612267565b610a4c5760405162461bcd60e51b8152602060048201526011602482015270283937b7b31034b99034b73b30b634b21760791b6044820152606401610340565b600089897f00000000000000000000000000000000000000000000000000000000000000007f0000000000000000000000000000000000000000000000000000000000000000604051602001610aa5949392919061257f565b60408051601f1981840301815290829052600154630dac4ebd60e21b83529092506001600160a01b0316906336b13af490610ae690849030906004016122ab565b6020604051808303816000875af1158015610b05573d6000803e3d6000fd5b505050506040513d601f19601f82011682018060405250810190610b2991906122d5565b600284015560048301610b3d8a8c83612599565b5060408501518051610b5991600786019160209091019061178d565b5060c0850151600b84015560e08501516009840155604080516101e08101825284546001600160a01b031681526001850154602082015260028501549181019190915260038401805485916060840191610bb29061237a565b80601f0160208091040260200160405190810160405280929190818152602001828054610bde9061237a565b8015610c2b5780601f10610c0057610100808354040283529160200191610c2b565b820191906000526020600020905b815481529060010190602001808311610c0e57829003601f168201915b50505050508152602001600482018054610c449061237a565b80601f0160208091040260200160405190810160405280929190818152602001828054610c709061237a565b8015610cbd5780601f10610c9257610100808354040283529160200191610cbd565b820191906000526020600020905b815481529060010190602001808311610ca057829003601f168201915b505050505081526020016005820154815260200160068201805480602002602001604051908101604052809291908181526020016000905b82821015610da1578382906000526020600020018054610d149061237a565b80601f0160208091040260200160405190810160405280929190818152602001828054610d409061237a565b8015610d8d5780601f10610d6257610100808354040283529160200191610d8d565b820191906000526020600020905b815481529060010190602001808311610d7057829003601f168201915b505050505081526020019060010190610cf5565b50505050815260200160078201805480602002602001604051908101604052809291908181526020016000905b82821015610e7a578382906000526020600020018054610ded9061237a565b80601f0160208091040260200160405190810160405280929190818152602001828054610e199061237a565b8015610e665780601f10610e3b57610100808354040283529160200191610e66565b820191906000526020600020905b815481529060010190602001808311610e4957829003601f168201915b505050505081526020019060010190610dce565b5050509082525060088201546001600160a01b0381166020830152600160a01b900461ffff16604082015260098201546060820152600a8201546080820152600b82015460a0820152600c9091015460ff808216151560c084015261010090910416151560e0909101529a9950505050505050505050565b805160609082906000816001600160401b03811115610f1357610f136118cd565b604051908082528060200260200182016040528015610f3c578160200160208202803683370190505b5090506020830160208201845182015b80831015610f6c57825160f81c8252600183019250602082019150610f4c565b50919695505050505050565b60008181526020819052604081206001810154829190610faa5760405162461bcd60e51b8152600401610340906124c2565b4281600901541015610ff75760405162461bcd60e51b81526020600482015260166024820152752a3434b9903232b0b6103430b99032bc3834b932b21760511b6044820152606401610340565b600c81015460ff16806110135750600c810154610100900460ff165b61106d5760405162461bcd60e51b815260206004820152602560248201527f4f7261636c6520617373657274696f6e20686173206e6f74206265656e2073656044820152641d1d1b195960da1b6064820152608401610340565b600081600a0154116110c15760405162461bcd60e51b815260206004820152601e60248201527f46756e64732068617665206e6f74206265656e20617574686f72697a656400006044820152606401610340565b600a8101805460009182905560088301546040519192916001600160a01b039091169083908381818185875af1925050503d806000811461111e576040519150601f19603f3d011682016040523d82523d6000602084013e611123565b606091505b50509050806111445760405162461bcd60e51b815260040161034090612659565b9590945092505050565b6000818152602081905260409020600181015461117d5760405162461bcd60e51b8152600401610340906124c2565b42816009015410156111ca5760405162461bcd60e51b81526020600482015260166024820152752a3434b9903232b0b6103430b99032bc3834b932b21760511b6044820152606401610340565b600c81015460ff1615806111e85750600c810154610100900460ff16155b6112345760405162461bcd60e51b815260206004820152601d60248201527f4465616c2068617320616c7265616479206265656e20736574746c65640000006044820152606401610340565b600c81015460ff166112de57600181015461124f90806115f8565b156112da57600a8101805460009182905560088301546040519192916001600160a01b039091169083908381818185875af1925050503d80600081146112b1576040519150601f19603f3d011682016040523d82523d6000602084013e6112b6565b606091505b50509050806112d75760405162461bcd60e51b815260040161034090612659565b50505b5050565b600c810154610100900460ff166112da5761124f816001015482600201546115f8565b60006020819052908152604090208054600182015460028301546003840180546001600160a01b0390941694929391929161133b9061237a565b80601f01602080910402602001604051908101604052809291908181526020018280546113679061237a565b80156113b45780601f10611389576101008083540402835291602001916113b4565b820191906000526020600020905b81548152906001019060200180831161139757829003601f168201915b5050505050908060040180546113c99061237a565b80601f01602080910402602001604051908101604052809291908181526020018280546113f59061237a565b80156114425780601f1061141757610100808354040283529160200191611442565b820191906000526020600020905b81548152906001019060200180831161142557829003601f168201915b50505050600583015460088401546009850154600a860154600b870154600c90970154959693956001600160a01b0384169550600160a01b90930461ffff1693919290919060ff808216916101009004168d565b61149e6117e3565b60006060836040516020016114b391906126a8565b6040516020818303038152906040529050808051906020012091508382856040516020016114e191906126a8565b604051602081830303815290604052826114fa90612831565b97919650945092505050565b60015460405163e39dfd7f60e01b8152600481018390526000916001600160a01b03169063e39dfd7f90602401602060405180830381865afa158015611550573d6000803e3d6000fd5b505050506040513d601f19601f820116820180604052508101906115749190612267565b92915050565b600081815260208190526040812080546001600160a01b031633146115db5760405162461bcd60e51b815260206004820152601760248201527621b0b63632b91034b9903ab730baba3437b934bd32b21760491b6044820152606401610340565b6000600b8201819055600a82015542600990910155506001919050565b6000828152602081905260408082206001549151638ea2f2ab60e01b81526004810185905290916001600160a01b031690638ea2f2ab906024016020604051808303816000875af1158015611651573d6000803e3d6000fd5b505050506040513d601f19601f820116820180604052508101906116759190612267565b1561171657600c81015460ff166116c257600c8101805460ff19166001179055600b81018054600091829055600a83018054919283926116b6908490612011565b9091555061170c915050565b600c810154610100900460ff1661170c57600c8101805461ff001916610100179055600b81018054600091829055600a8301805491928392611705908490612011565b9091555050505b6001915050611574565b600154604051638ea2f2ab60e01b8152600481018590526001600160a01b0390911690638ea2f2ab906024016020604051808303816000875af1158015611761573d6000803e3d6000fd5b505050506040513d601f19601f820116820180604052508101906117859190612267565b949350505050565b8280548282559060005260206000209081019282156117d3579160200282015b828111156117d357825182906117c39082612403565b50916020019190600101906117ad565b506117df92915061185e565b5090565b604080516101e08101825260008082526020820181905291810182905260608082018190526080820181905260a0820183905260c0820181905260e0820152610100810182905261012081018290526101408101829052610160810182905261018081018290526101a081018290526101c081019190915290565b808211156117df576000611872828261187b565b5060010161185e565b5080546118879061237a565b6000825580601f10611897575050565b601f0160209004906000526020600020908101906118b591906118b8565b50565b5b808211156117df57600081556001016118b9565b634e487b7160e01b600052604160045260246000fd5b60405161010081016001600160401b0381118282101715611906576119066118cd565b60405290565b6040516101e081016001600160401b0381118282101715611906576119066118cd565b604051601f8201601f191681016001600160401b0381118282101715611957576119576118cd565b604052919050565b600082601f83011261197057600080fd5b81356001600160401b03811115611989576119896118cd565b61199c601f8201601f191660200161192f565b8181528460208386010111156119b157600080fd5b816020850160208301376000918101602001919091529392505050565b60008083601f8401126119e057600080fd5b5081356001600160401b038111156119f757600080fd5b602083019150836020828501011115611a0f57600080fd5b9250929050565b60008060008060608587031215611a2c57600080fd5b84356001600160401b0380821115611a4357600080fd5b611a4f8883890161195f565b95506020870135915080821115611a6557600080fd5b611a71888389016119ce565b90955093506040870135915080821115611a8a57600080fd5b5085016101008188031215611a9e57600080fd5b939692955090935050565b60006001600160401b0380841115611ac357611ac36118cd565b8360051b6020611ad481830161192f565b86815293509084019080840187831115611aed57600080fd5b855b83811015611b2157803585811115611b075760008081fd5b611b138a828a0161195f565b835250908201908201611aef565b50505050509392505050565b600082601f830112611b3e57600080fd5b611b4d83833560208501611aa9565b9392505050565b80356001600160a01b0381168114611b6b57600080fd5b919050565b803561ffff81168114611b6b57600080fd5b60008060008060008060808789031215611b9b57600080fd5b86356001600160401b0380821115611bb257600080fd5b611bbe8a838b016119ce565b9098509650602089013595506040890135915080821115611bde57600080fd5b611bea8a838b016119ce565b90955093506060890135915080821115611c0357600080fd5b90880190610100828b031215611c1857600080fd5b611c206118e3565b8235815260208301356020820152604083013582811115611c4057600080fd5b611c4c8c828601611b2d565b604083015250611c5e60608401611b54565b6060820152611c6f60808401611b70565b608082015260a083013560a082015260c083013560c082015260e083013560e08201528093505050509295509295509295565b60005b83811015611cbd578181015183820152602001611ca5565b50506000910152565b60008151808452611cde816020860160208601611ca2565b601f01601f19169290920160200192915050565b600081518084526020808501808196508360051b8101915082860160005b85811015611d3a578284038952611d28848351611cc6565b98850198935090840190600101611d10565b5091979650505050505050565b80516001600160a01b0316825260006101e060208301516020850152604083015160408501526060830151816060860152611d8482860182611cc6565b91505060808301518482036080860152611d9e8282611cc6565b91505060a083015160a085015260c083015184820360c0860152611dc28282611cf2565b91505060e083015184820360e0860152611ddc8282611cf2565b91505061010080840151611dfa828701826001600160a01b03169052565b50506101208381015161ffff16908501526101408084015190850152610160808401519085015261018080840151908501526101a0808401511515908501526101c080840151801515828701525b5090949350505050565b602081526000611b4d6020830184611d47565b600060208284031215611e7757600080fd5b81356001600160401b03811115611e8d57600080fd5b6117858482850161195f565b600081518084526020808501945080840160005b83811015611ec957815187529582019590820190600101611ead565b509495945050505050565b602081526000611b4d6020830184611e99565b600060208284031215611ef957600080fd5b5035919050565b60018060a01b038e1681528c60208201528b60408201526101a060608201526000611f2f6101a083018d611cc6565b8281036080840152611f41818d611cc6565b9150508960a083015260018060a01b03891660c083015261ffff881660e0830152866101008301528561012083015284610140830152611f8661016083018515159052565b8215156101808301529e9d5050505050505050505050505050565b600060208284031215611fb357600080fd5b81356001600160401b03811115611fc957600080fd5b82016101e08185031215611b4d57600080fd5b606081526000611fef6060830186611d47565b84602084015282810360408401526120078185611cc6565b9695505050505050565b8082018082111561157457634e487b7160e01b600052601160045260246000fd5b60208082526023908201527f45787069726174696f6e206d757374206e6f74206578636565642036302064616040820152623cb99760e91b606082015260800190565b6000808335601e1984360301811261208c57600080fd5b83016020810192503590506001600160401b038111156120ab57600080fd5b8060051b3603821315611a0f57600080fd5b81835281816020850137506000828201602090810191909152601f909101601f19169091010190565b6000808335601e198436030181126120fd57600080fd5b83016020810192503590506001600160401b0381111561211c57600080fd5b803603821315611a0f57600080fd5b81835260006020808501808196508560051b810191508460005b87811015611d3a57828403895261215c82886120e6565b6121678682846120bd565b9a87019a9550505090840190600101612145565b602081528135602082015260208201356040820152600061219f6040840184612075565b6101008060608601526121b76101208601838561212b565b92506001600160a01b036121cd60608801611b54565b16608086015261ffff6121e260808801611b70565b1660a086015260a086013560c086015260c086013560e086015260e08601358186015250508091505092915050565b60008351612223818460208801611ca2565b9190910191825250602001919050565b6040815260006122476040830185876120bd565b82810360208401526120078185611e99565b80151581146118b557600080fd5b60006020828403121561227957600080fd5b8151611b4d81612259565b60008451612296818460208901611ca2565b91909101928352506020820152604001919050565b6040815260006122be6040830185611cc6565b905060018060a01b03831660208301529392505050565b6000602082840312156122e757600080fd5b5051919050565b6000808335601e1984360301811261230557600080fd5b8301803591506001600160401b0382111561231f57600080fd5b6020019150600581901b3603821315611a0f57600080fd5b6000611b4d368484611aa9565b60006020828403121561235657600080fd5b611b4d82611b54565b60006020828403121561237157600080fd5b611b4d82611b70565b600181811c9082168061238e57607f821691505b6020821081036123ae57634e487b7160e01b600052602260045260246000fd5b50919050565b601f8211156123fe57600081815260208120601f850160051c810160208610156123db5750805b601f850160051c820191505b818110156123fa578281556001016123e7565b5050505b505050565b81516001600160401b0381111561241c5761241c6118cd565b6124308161242a845461237a565b846123b4565b602080601f831160018114612465576000841561244d5750858301515b600019600386901b1c1916600185901b1785556123fa565b600085815260208120601f198616915b8281101561249457888601518255948401946001909101908401612475565b50858210156124b25787850151600019600388901b60f8161c191681555b5050505050600190811b01905550565b6020808252601490820152732232b0b6103237b2b9903737ba1032bc34b9ba1760611b604082015260600190565b60208152815160208201526020820151604082015260006040830151610100806060850152612523610120850183611cf2565b915060018060a01b03606086015116608085015261ffff60808601511660a085015260a085015160c085015260c085015160e085015260e085015181850152508091505092915050565b82848237909101908152602001919050565b838582379092019081526020810191909152604001919050565b6001600160401b038311156125b0576125b06118cd565b6125c4836125be835461237a565b836123b4565b6000601f8411600181146125f857600085156125e05750838201355b600019600387901b1c1916600186901b178355612652565b600083815260209020601f19861690835b828110156126295786850135825560209485019460019092019101612609565b50868210156126465760001960f88860031b161c19848701351681555b505060018560011b0183555b5050505050565b60208082526024908201527f546865207472616e7366657220636f756c64206e6f7420626520636f6d706c656040820152633a32b21760e11b606082015260800190565b8035611b6b81612259565b602081526126c9602082016126bc84611b54565b6001600160a01b03169052565b602082013560408201526040820135606082015260006126ec60608401846120e6565b6101e0806080860152612704610200860183856120bd565b925061271360808701876120e6565b9250601f19808786030160a088015261272d8585846120bd565b945060a088013560c088015261274660c0890189612075565b94509150808786030160e088015261275f85858461212b565b945061276e60e0890189612075565b9450915061010081888703018189015261278986868561212b565b9550612796818a01611b54565b94505050506101206127b2818701846001600160a01b03169052565b6127bd818801611b70565b9250506101406127d28187018461ffff169052565b610160925080870135838701525061018082870135818701526101a0925080870135838701525061280482870161269d565b91506101c06128168187018415159052565b61282181880161269d565b925050611e488186018315159052565b60006101e0823603121561284457600080fd5b61284c61190c565b61285583611b54565b8152602083013560208201526040830135604082015260608301356001600160401b038082111561288557600080fd5b6128913683870161195f565b606084015260808501359150808211156128aa57600080fd5b6128b63683870161195f565b608084015260a085013560a084015260c08501359150808211156128d957600080fd5b6128e536838701611b2d565b60c084015260e08501359150808211156128fe57600080fd5b5061290b36828601611b2d565b60e08301525061010061291f818501611b54565b90820152610120612931848201611b70565b908201526101408381013590820152610160808401359082015261018080840135908201526101a061296481850161269d565b908201526101c061297684820161269d565b908201529291505056fea264697066735822122050bdfe6c1c3c714f1e12f5b05893bcd42191d079dad72d0f49abefa265da2d4564736f6c63430008100033","linkReferences":{}},"methodIdentifiers":{"assertClosingPacket(bytes,bytes32,bytes,(bytes32,bytes32,bytes[],address,uint16,uint256,uint256,uint256))":"47c87d70","assertOpeningPacket(bytes,bytes,(bytes32,bytes32,bytes[],address,uint16,uint256,uint256,uint256))":"43b1deef","assertionStatement()":"d2d716e7","cancelDeal(bytes32)":"faa86b4a","closingPacketRules()":"293697b7","deals(bytes32)":"81cd872a","getAssertionResult(bytes32)":"e39dfd7f","maxExpiration()":"25bee3e9","openingPacketRules()":"a4fd99d7","releaseFunding(bytes32)":"78488a2e","returnDataFormat((address,bytes32,bytes32,bytes,bytes,bytes32,bytes[],bytes[],address,uint16,uint256,uint256,uint256,bool,bool))":"ae1a5e56","settleAndReleaseFunding(bytes32)":"79459eec","split(bytes)":"65d894e9","verifier()":"2b7ac3f3"},"id":1}